{
  "_format": "hh-sol-artifact-1",
  "contractName": "Bank",
  "sourceName": "blockchain/contracts/Bank.sol",
  "abi": [
    {
      "inputs": [],
      "stateMutability": "nonpayable",
      "type": "constructor"
    },
    {
      "inputs": [
        {
          "internalType": "address",
          "name": "",
          "type": "address"
        }
      ],
      "name": "accounts",
      "outputs": [
        {
          "internalType": "uint256",
          "name": "",
          "type": "uint256"
        }
      ],
      "stateMutability": "view",
      "type": "function"
    },
    {
      "inputs": [],
      "name": "deposit",
      "outputs": [],
      "stateMutability": "payable",
      "type": "function"
    },
    {
      "inputs": [],
      "name": "totalAssets",
      "outputs": [
        {
          "internalType": "uint256",
          "name": "",
          "type": "uint256"
        }
      ],
      "stateMutability": "view",
      "type": "function"
    },
    {
      "inputs": [
        {
          "internalType": "uint256",
          "name": "_amount",
          "type": "uint256"
        },
        {
          "internalType": "address",
          "name": "_tokenContractAddress",
          "type": "address"
        }
      ],
      "name": "withdraw",
      "outputs": [],
      "stateMutability": "nonpayable",
      "type": "function"
    }
  ],
  "bytecode": "0x608060405234801561001057600080fd5b5061068f806100206000396000f3fe60806040526004361061003e5760003560e01c8062f714ce1461004357806301e1d1141461006c5780635e5c06e214610097578063d0e30db0146100d4575b600080fd5b34801561004f57600080fd5b5061006a60048036038101906100659190610380565b6100de565b005b34801561007857600080fd5b50610081610273565b60405161008e91906104f8565b60405180910390f35b3480156100a357600080fd5b506100be60048036038101906100b99190610357565b61027b565b6040516100cb91906104f8565b60405180910390f35b6100dc610293565b005b6000803373ffffffffffffffffffffffffffffffffffffffff1673ffffffffffffffffffffffffffffffffffffffff1681526020019081526020016000205482111561015f576040517f08c379a0000000000000000000000000000000000000000000000000000000008152600401610156906104d8565b60405180910390fd5b816000803373ffffffffffffffffffffffffffffffffffffffff1673ffffffffffffffffffffffffffffffffffffffff16815260200190815260200160002060008282546101ad919061057a565b925050819055503373ffffffffffffffffffffffffffffffffffffffff166108fc839081150290604051600060405180830381858888f193505050501580156101fa573d6000803e3d6000fd5b5060008190508073ffffffffffffffffffffffffffffffffffffffff166340c10f193360016040518363ffffffff1660e01b815260040161023c92919061048f565b600060405180830381600087803b15801561025657600080fd5b505af115801561026a573d6000803e3d6000fd5b50505050505050565b600047905090565b60006020528060005260406000206000915090505481565b600034116102d6576040517f08c379a00000000000000000000000000000000000000000000000000000000081526004016102cd906104b8565b60405180910390fd5b346000803373ffffffffffffffffffffffffffffffffffffffff1673ffffffffffffffffffffffffffffffffffffffff16815260200190815260200160002060008282546103249190610524565b92505081905550565b60008135905061033c8161062b565b92915050565b60008135905061035181610642565b92915050565b60006020828403121561036957600080fd5b60006103778482850161032d565b91505092915050565b6000806040838503121561039357600080fd5b60006103a185828601610342565b92505060206103b28582860161032d565b9150509250929050565b6103c5816105ae565b82525050565b6103d4816105ea565b82525050565b60006103e7602b83610513565b91507f4465706f73697420616d6f756e74206d7573742062652067726561746572207460008301527f68616e20302045746865720000000000000000000000000000000000000000006020830152604082019050919050565b600061044d601883610513565b91507f4e6f74206861766520656e6f7567682062616c616e63652100000000000000006000830152602082019050919050565b610489816105e0565b82525050565b60006040820190506104a460008301856103bc565b6104b160208301846103cb565b9392505050565b600060208201905081810360008301526104d1816103da565b9050919050565b600060208201905081810360008301526104f181610440565b9050919050565b600060208201905061050d6000830184610480565b92915050565b600082825260208201905092915050565b600061052f826105e0565b915061053a836105e0565b9250827fffffffffffffffffffffffffffffffffffffffffffffffffffffffffffffffff0382111561056f5761056e6105fc565b5b828201905092915050565b6000610585826105e0565b9150610590836105e0565b9250828210156105a3576105a26105fc565b5b828203905092915050565b60006105b9826105c0565b9050919050565b600073ffffffffffffffffffffffffffffffffffffffff82169050919050565b6000819050919050565b60006105f5826105e0565b9050919050565b7f4e487b7100000000000000000000000000000000000000000000000000000000600052601160045260246000fd5b610634816105ae565b811461063f57600080fd5b50565b61064b816105e0565b811461065657600080fd5b5056fea2646970667358221220cfcb0f8ec2706b4f61667166d9160e5ae1f2ab4c5dbb6c4ff9de12649a4b83d164736f6c63430008000033",
  "linkReferences": {},
  "deployedLinkReferences": {}
}